:10000000ADC00000C8C00000C6C00000C4C00000F1
:10001000C2C00000C0C00000BEC00000BCC00000E4
:10002000BAC00000B8C0000060C50000B4C0000045
:10003000B2C00000B0C00000AEC00000ACC0000004
:10004000AAC00000A8C00000A6C00000A4C0000014
:10005000A2C00000A0C000009EC000009CC0000024
:100060009AC0000098C0000096C0000094C0000034
:1000700092C0000090C000008EC000008CC0000044
:100080008AC0000088C0000086C0000084C0000054
:1000900082C0000080C0000005010906A1017501B1
:1000A0009508050719E029E715002501810295014A
:1000B0007508810395057501050819012905910247
:1000C00095017503910395067508150025650507CB
:1000D000190029658100C01201100100000008EB21
:1000E0000342200000010200010902220001010078
:1000F000C0320904000001030101000921110100BF
:1001000001223F000705810308000A0403090422B5
:1001100003440065006E0076006500720020004711
:100120000069006E00670065007200690063006886
:1001300000000026034C0055004600410020004B03
:10014000006500790062006F0061007200640020A9
:1001500000440065006D006F0000000011241FBE08
:10016000CFEFD0E2DEBFCDBF11E0A0E0B1E0E6EA24
:10017000F0E100E00BBF02C007900D92AE30B10776
:10018000D9F711E0AEE0B1E001C01D92A332B10792
:10019000E1F7CCD086C734CFFB01DC0104C08D91E0
:1001A0000190801921F441505040C8F7881B990BE9
:1001B0000895FB01DC0102C001900D9241505040B6
:1001C000D8F70895DC0101C06D9341505040E0F72D
:1001D00008958BB18F70806A8BB908958BB18F7041
:1001E00080618BB9089580910B0190910C0100976B
:1001F00029F0019790930C0180930B0108950F93C0
:100200001F93CF93DF93E801D90123B18CB180957F
:1002100090E080739070959587952095207E282B8F
:100220003CB182E08C9327FF02C084E005C024FD2E
:1002300002C090E005C085E012968C93129791E081
:1002400026FF05C0FD01E90FF11D86E006C023FF72
:1002500006C0FD01E90FF11D87E082839F5F25FF46
:1002600006C0FD01E90FF11D88E082839F5F32FD2A
:1002700005C0A90FB11D89E012968C9388E090E02B
:100280009983888380E0DF91CF911F910F9108952A
:10029000FA01808190E080FD90E181FD906882FD0F
:1002A00090648BB18F70982B9BB9089580E091E09A
:1002B000E6C58BB18F7080668BB980E091E0ADD5DB
:1002C000882321F48BB18F7080698BB98091E20013
:1002D00084608093E200089584B7877F84BF88E1BB
:1002E0000FB6F89480936000109260000FBE80E01B
:1002F00090E020E80FB6F8942093610080936100AD
:100300000FBE84B18F7184B98DB18F7C8DB985B1E9
:10031000806E85B98EB180638EB98AB1806F8AB9DB
:100320008BB18F708BB96A98729AC1C3D5DF8BB1CC
:100330008F7080618BB980E091E0ADD499D4FBCF10
:10034000DA019330B1F0943028F4913041F09230DA
:1003500079F50AC0913211F1923251F524C0E7EDDE
:10036000F0E022E130E028C0E9EEF0E022E230E007
:1003700023C0813049F0813018F08230C9F40AC0BE
:10038000EBE0F1E0849103C0EFE0F1E08491282FED
:1003900030E012C0E3E3F1E08491F9CFEBEFF0E05D
:1003A00029E030E009C0E8E9F0E02FE330E004C0E4
:1003B000E0E0F0E020E030E0ED93FC93C901089527
:1003C0001F93DF93CF93CDB7DEB7AC970FB6F894FA
:1003D000DEBF0FBECDBFEBE1F1E08091F100819374
:1003E00021E0E332F207C9F780911B0130911C0133
:1003F000353009F486C0363040F43130C1F1313047
:1004000070F0333009F023C132C0383009F4F0C045
:10041000393009F403C1363009F019C191C0803870
:1004200021F0823809F013C108C090911601809123
:100430001701882391F0926010C080911F01809372
:10044000E9008091EB0090E025E0969587952A954C
:10045000E1F7982F91701092E9008091E800877F72
:100460008093E8009093F1001092F100CCC08823B3
:1004700019F0823009F0EBC090E08F719070009716
:1004800021F0029709F0E4C00CC080911D01813079
:1004900009F0DEC010921701333069F5809317011F
:1004A0002AC080911D01882331F520911F012770FA
:1004B00009F4CEC02093E9008091EB0080FF1BC0BF
:1004C000333021F48091EB00806213C08091EB0007
:1004D00080618093EB0081E090E002C0880F991F5B
:1004E0002A95E2F78093EA001092EA008091EB00EF
:1004F00088608093EB001092E9008091E800877F8C
:1005000089C0882309F0A3C010911D018091E800E3
:10051000877F8093E800ECD005C080911A01882382
:1005200009F496C08091E80080FFF7CF912F9F7764
:1005300019F083E080931A0190689093E30088C0DB
:100540008058823008F083C080911D0190911E0177
:1005500023E08C3D920781F5DE0115964EE020E008
:1005600030E051E2E42FF0E050935700849120FFF7
:1005700003C082958F704F5F982F9F70892F805D89
:100580008A3308F0895F8C9311961C9211972F5F24
:100590003F4F12962431310529F78091E800877F7B
:1005A0008093E8008AE28B8383E08C83CE010396FC
:1005B0006AE270E030D112C060911F01AE014F5F5E
:1005C0005F4FBEDEBC01009709F442C08091E80095
:1005D000877F8093E80089819A817DD18091E800AE
:1005E000982F9B7F9093E8008F778093E80030C02E
:1005F000803869F58091E800877F8093E8008091DA
:1006000018018093F1008091E800982F9E7F9093CD
:10061000E8008F778093E8006BD01AC08823B9F484
:1006200090911D019230A0F48091E800877F809323
:10063000E800909318015CD080911801882311F490
:1006400083E001C084E080931A0133DE01C02EDE16
:100650008091E80083FF0AC08091EB008062809364
:10066000EB008091E800877F8093E800AC960FB69E
:10067000F894DEBF0FBECDBFCF91DF911F910895DB
:1006800028E030E040E003C04F5F220F331F2817FF
:100690003907D0F3842F8295807F08958093E900F5
:1006A0008091EB0081608093EB001092ED006093ED
:1006B000EC004093ED008091EE00881F8827881F92
:1006C00008951092F40090E09093E9001092F000E9
:1006D0001092E8008091ED008D7F8093ED00809175
:1006E000EB008E7F8093EB009F5F973069F7089552
:1006F00080911B018823BCF404C080911A018823D7
:10070000F9F08091E80082FFF8CF8091E800982FFF
:100710009B7F9093E8008F778093E8000895809105
:100720001A01882369F08091E80080FFF8CF80915A
:10073000E800982F9E7F9093E8008F778093E800E1
:10074000089594E68091EC0080FF05C08091E80058
:1007500080FF05C01FC08091E80082FD1BC0809112
:100760001A01882311F482E008958091EB0085FF3F
:1007700002C081E008958091E10082FFE3CF809183
:10078000E1008B7F8093E100992311F483E00895C9
:100790009150D8CF80E00895DF92EF92FF920F93AF
:1007A0001F93CF93DF93182F092FEB017A01C9DF35
:1007B000D82E882339F5812F902F9C01890120C0E4
:1007C0008091E80085FD16C08091E800982F9E7FFB
:1007D0009093E8008F778093E800E114F10431F002
:1007E000F7010995813011F484E00DC0AADF882358
:1007F00039F009C0F80181918F018093F1002197B0
:100800002097F1F68D2DDF91CF911F910F91FF90E1
:10081000EF90DF9008959C014091210150912201B9
:100820004617570718F4F90160E043C061157105D8
:1008300011F0AB01F8CF8091E800982F9E7F909344
:10084000E8008F778093E80040E050E0ECCF8091A3
:10085000E80083FF02C081E008958091E80082FDF6
:1008600032C080911A018823A1F18091E80080FFB5
:1008700020C02091F2003091F30007C08191809355
:10088000F100415050402F5F3F4F4115510519F085
:100890002830310598F360E02830310509F461E033
:1008A0008091E800982F9E7F9093E8008F77809347
:1008B000E8004115510559F6662349F604C08091B8
:1008C0001A01882331F08091E80082FFF8CF80E0A0
:1008D000089582E008959C014091210150912201E8
:1008E0004617570710F460E044C06115710511F018
:1008F000AB01F9CF8091E800982F9E7F9093E8009C
:100900008F778093E80040E050E0EDCF8091E800E1
:1009100083FF02C081E008958091E80082FD33C02A
:1009200080911A018823A9F18091E80080FF21C0FD
:100930008091F2009091F30009C0F9012F5F3F4FC1
:10094000E491E093F100415050400196411551056A
:1009500019F08830910588F360E0089709F461E0A8
:100960008091E800982F9E7F9093E8008F77809386
:10097000E8004115510551F6662341F604C0809107
:100980001A01882331F08091E80082FFF8CF80E0DF
:10099000089582E008959C016115710549F48091E4
:1009A000E800982F9B7F9093E8008F778093E80072
:1009B000F90124C08091E80083FF02C081E008951E
:1009C00080911A01882341F18091E80082FFF2CFE3
:1009D00006C08091F10081936150704031F08091A8
:1009E000F2009091F300892BA1F78091E800982FF5
:1009F0009B7F9093E8008F778093E80061157105E5
:100A0000C9F604C080911A01882331F08091E80072
:100A100080FFF8CF80E0089582E0089559D060D03B
:100A200010921A01109218011092170110921601DB
:100A30008CE089BD89B5826089BD09B400FEFDCF17
:100A40008091D800982F9F779093D80080688093EA
:100A5000D8008091D70081608093D7008091D80022
:100A60008F7D8093D8008091E0008B7F8093E000A1
:100A70008091E0008E7F8093E0008091E1008E7F86
:100A80008093E1008091E20081608093E200809198
:100A9000E100877F8093E1008091E200886080938D
:100AA000E2008091D80081608093D8000895E7ED3E
:100AB000F0E0808180688083B1DFE8EDF0E0808144
:100AC0008061808381E0809319017894089508956E
:100AD000E8EDF0E080818C7F80831092E200089541
:100AE0001092DA001092E10008951F920F920FB653
:100AF0000F920BB60F9211242F933F934F935F9356
:100B00006F937F938F939F93AF93BF93EF93FF93D5
:100B10008091DA0080FF15C08091D80080FF11C05D
:100B20008091DA008E7F8093DA008091D90080FF77
:100B300005C081E080931A014CDB03C010921A01BA
:100B40004DDB8091E10080FF1DC08091E20080FFBD
:100B500019C08091E1008E7F8093E1008091E200D6
:100B60008E7F8093E2008091E20080618093E200BA
:100B70008091D80080628093D80019BC85E0809372
:100B80001A01A5DF8091E10084FF2AC08091E20074
:100B900084FF26C08CE089BD89B5826089BD09B417
:100BA00000FEFDCF8091D8008F7D8093D80080918A
:100BB000E1008F7E8093E1008091E2008F7E809340
:100BC000E2008091E20081608093E2008091180150
:100BD000882311F483E001C084E080931A0177DF59
:100BE0008091E10083FF23C08091E20083FF1FC05A
:100BF0008091E100877F8093E10082E080931A0179
:100C0000109218018091E1008E7F8093E100809125
:100C1000E2008E7F8093E2008091E2008061809309
:100C2000E2004FDD80E060E042E038DD50DF80919F
:100C3000E10082FF0AC08091E20082FF06C080913D
:100C4000E1008B7F8093E100CEDAFF91EF91BF91BD
:100C5000AF919F918F917F916F915F914F913F9154
:100C60002F910F900BBE0F900FBE0F901F901895F5
:100C70001F9380911A01882361F01091E90010926E
:100C8000E9008091E80083FF01C09ADB17701093A0
:100C9000E9001F9108952F923F924F925F926F92B9
:100CA0007F928F929F92AF92BF92CF92DF92EF92FC
:100CB000FF920F931F93DF93CF9300D00F92CDB786
:100CC000DEB77C014DB65EB680911A01843009F022
:100CD00089C0F70181818093E9008091E80085FF58
:100CE00081C03DB62EB647818DB79EB7841B910952
:100CF0000FB6F8949EBF0FBE8DBF0DB71EB70F5F26
:100D00001F4F19821B821A82802E712EC80160E04B
:100D100070E050E057DAC701BE016F5F7F4F40E0DF
:100D200098018E010E5F1F4F6ADA682EF7018185E8
:100D30009285892B19F4AA24BB240BC020E0F7016B
:100D400083859485892B09F021E081E02827A22E54
:100D5000BB24F701058116810115110511F4DD246D
:100D600013C0CA809B80882D972DB8014C2D592D1A
:100D700013DADD24009711F0DD24D394C801682D27
:100D8000772D4C2D592D15DA6A817B8161157105FE
:100D900009F1662021F4DD2011F4AB28D9F0F70128
:100DA000818592859487838781818093E9008981F9
:100DB000882311F08093F100882D972D40E050E0BA
:100DC000EBDC8091E800982F9E7F9093E8008F776E
:100DD0008093E800832D922D9C010FB6F8943EBFBE
:100DE0000FBE2DBF0FB6F8945EBE0FBE4DBE0F9066
:100DF0000F900F90CF91DF911F910F91FF90EF9087
:100E0000DF90CF90BF90AF909F908F907F906F902A
:100E10005F904F903F902F9008950F931F93CF9323
:100E2000DF93DC010896FC0185E0EF0119928A95B9
:100E3000E9F781E018968C93189784EF91E01A9661
:100E40009C938E93199711960C91119714968C91EF
:100E50001497882311F412E001C016E012968D91C8
:100E60009C9113970DDC182B802F61EC412F16DC21
:100E7000811181E0DF91CF911F910F9108956F92C1
:100E80007F928F929F92BF92CF92DF92EF92FF92CA
:100E90000F931F93DF93CF9300D00F92CDB7DEB7A0
:100EA0004C016DB67EB68091E80083FFE4C0F4018A
:100EB000808190E020911F0130912001281739078F
:100EC00009F0D9C080911C01833009F482C08430BC
:100ED00030F4813071F0823009F0CDC0B0C08A307A
:100EE00009F496C08B3009F481C0893009F0C3C081
:100EF00038C080911B01813A09F0BDC08091E800A3
:100F0000877F8093E8001B821A8280911D011091D7
:100F10001E018983F40147818581968160E070E03C
:100F200050E050D91150F40125813681C401BE0131
:100F30006F5F7F4F412F8E010E5F1F4F60D9109260
:100F4000E9006A817B81F4018581968164DC80916E
:100F5000E800982F9B7F9093E8008F778093E800BC
:100F60008AC080911B01813209F085C0BEB6809194
:100F7000E800877F8093E800E0902101F090220153
:100F80008DB79EB78E199F090FB6F8949EBF0FBEFE
:100F90008DBF0DB71EB70F5F1F4FD0901D01C80149
:100FA000B701F9DC8091E800982F9E7F9093E800CC
:100FB0008F778093E800C4016D2DA801970168D94F
:100FC000262D3B2DC9010FB6F8949EBF0FBE8DBFD5
:100FD00052C080911B01813A09F04DC08091E80018
:100FE000877F8093E800F401808539C080911B01E0
:100FF000813209F040C08091E800877F8093E8004B
:1010000090E080911D01811191E0F401908732C040
:1010100080911B01813279F58091E800877F809370
:10102000E80080911D0190911E01807036E0969538
:1010300087953A95E1F7F401928781871BC08091EB
:101040001B01813AC1F48091E800877F8093E8001A
:10105000F4018185928596958795969587958093DD
:10106000F1008091E800982F9E7F9093E8008F77A1
:101070008093E8003DDB0FB6F8947EBE0FBE6DBED8
:101080000F900F900F90CF91DF911F910F91FF90D4
:10109000EF90DF90CF90BF909F908F907F906F9058
:0610A0000895F894FFCF53
:0E10A60000010800000E01080000000000001C
:00000001FF
